{
  "_format": "hh-sol-artifact-1",
  "contractName": "Registry",
  "sourceName": "contracts/Registry.sol",
  "abi": [
    {
      "anonymous": false,
      "inputs": [
        {
          "indexed": true,
          "internalType": "address",
          "name": "node",
          "type": "address"
        }
      ],
      "name": "Activated",
      "type": "event"
    },
    {
      "anonymous": false,
      "inputs": [
        {
          "indexed": true,
          "internalType": "address",
          "name": "node",
          "type": "address"
        }
      ],
      "name": "Exited",
      "type": "event"
    },
    {
      "anonymous": false,
      "inputs": [
        {
          "indexed": true,
          "internalType": "address",
          "name": "node",
          "type": "address"
        },
        {
          "indexed": false,
          "internalType": "uint256",
          "name": "stake",
          "type": "uint256"
        }
      ],
      "name": "Registered",
      "type": "event"
    },
    {
      "anonymous": false,
      "inputs": [
        {
          "indexed": true,
          "internalType": "address",
          "name": "node",
          "type": "address"
        },
        {
          "indexed": false,
          "internalType": "uint256",
          "name": "releaseTime",
          "type": "uint256"
        }
      ],
      "name": "UnbondingStarted",
      "type": "event"
    },
    {
      "inputs": [],
      "name": "UNBONDING_PERIOD",
      "outputs": [
        {
          "internalType": "uint256",
          "name": "",
          "type": "uint256"
        }
      ],
      "stateMutability": "view",
      "type": "function"
    },
    {
      "inputs": [],
      "name": "activate",
      "outputs": [],
      "stateMutability": "nonpayable",
      "type": "function"
    },
    {
      "inputs": [
        {
          "internalType": "address",
          "name": "",
          "type": "address"
        }
      ],
      "name": "nodes",
      "outputs": [
        {
          "internalType": "uint256",
          "name": "stake",
          "type": "uint256"
        },
        {
          "internalType": "uint256",
          "name": "age",
          "type": "uint256"
        },
        {
          "internalType": "enum Registry.State",
          "name": "state",
          "type": "uint8"
        },
        {
          "internalType": "bytes32",
          "name": "vrfKey",
          "type": "bytes32"
        },
        {
          "internalType": "uint256",
          "name": "unbondTime",
          "type": "uint256"
        }
      ],
      "stateMutability": "view",
      "type": "function"
    },
    {
      "inputs": [
        {
          "internalType": "bytes32",
          "name": "_vrfKey",
          "type": "bytes32"
        }
      ],
      "name": "register",
      "outputs": [],
      "stateMutability": "payable",
      "type": "function"
    },
    {
      "inputs": [],
      "name": "unbond",
      "outputs": [],
      "stateMutability": "nonpayable",
      "type": "function"
    },
    {
      "inputs": [],
      "name": "withdraw",
      "outputs": [],
      "stateMutability": "nonpayable",
      "type": "function"
    }
  ],
  "bytecode": "0x608060405234801561001057600080fd5b50611049806100206000396000f3fe6080604052600436106100555760003560e01c80630f15f4c01461005a578063189a5a17146100715780633ccfd60b146100b25780635df6a6bc146100c9578063d9a912ec146100e0578063e1fa8e841461010b575b600080fd5b34801561006657600080fd5b5061006f610127565b005b34801561007d57600080fd5b5061009860048036038101906100939190610ac8565b61028b565b6040516100a9959493929190610b9e565b60405180910390f35b3480156100be57600080fd5b506100c76102ce565b005b3480156100d557600080fd5b506100de6105f1565b005b3480156100ec57600080fd5b506100f56107f5565b6040516101029190610bf1565b60405180910390f35b61012560048036038101906101209190610c38565b6107fc565b005b6000600381111561013b5761013a610b0e565b5b6000803373ffffffffffffffffffffffffffffffffffffffff1673ffffffffffffffffffffffffffffffffffffffff16815260200190815260200160002060020160009054906101000a900460ff16600381111561019c5761019b610b0e565b5b146101dc576040517f08c379a00000000000000000000000000000000000000000000000000000000081526004016101d390610cc2565b60405180910390fd5b60016000803373ffffffffffffffffffffffffffffffffffffffff1673ffffffffffffffffffffffffffffffffffffffff16815260200190815260200160002060020160006101000a81548160ff0219169083600381111561024157610240610b0e565b5b02179055503373ffffffffffffffffffffffffffffffffffffffff167f0cc43938d137e7efade6a531f663e78c1fc75257b0d65ffda2fdaf70cb49cdf960405160405180910390a2565b60006020528060005260406000206000915090508060000154908060010154908060020160009054906101000a900460ff16908060030154908060040154905085565b600260038111156102e2576102e1610b0e565b5b6000803373ffffffffffffffffffffffffffffffffffffffff1673ffffffffffffffffffffffffffffffffffffffff16815260200190815260200160002060020160009054906101000a900460ff16600381111561034357610342610b0e565b5b14610383576040517f08c379a000000000000000000000000000000000000000000000000000000000815260040161037a90610d2e565b60405180910390fd5b6000803373ffffffffffffffffffffffffffffffffffffffff1673ffffffffffffffffffffffffffffffffffffffff16815260200190815260200160002060040154421015610407576040517f08c379a00000000000000000000000000000000000000000000000000000000081526004016103fe90610d9a565b60405180910390fd5b60008060003373ffffffffffffffffffffffffffffffffffffffff1673ffffffffffffffffffffffffffffffffffffffff16815260200190815260200160002060000154905060008060003373ffffffffffffffffffffffffffffffffffffffff1673ffffffffffffffffffffffffffffffffffffffff1681526020019081526020016000206000018190555060036000803373ffffffffffffffffffffffffffffffffffffffff1673ffffffffffffffffffffffffffffffffffffffff16815260200190815260200160002060020160006101000a81548160ff021916908360038111156104f9576104f8610b0e565b5b021790555060003373ffffffffffffffffffffffffffffffffffffffff168260405161052490610deb565b60006040518083038185875af1925050503d8060008114610561576040519150601f19603f3d011682016040523d82523d6000602084013e610566565b606091505b50509050806105aa576040517f08c379a00000000000000000000000000000000000000000000000000000000081526004016105a190610e4c565b60405180910390fd5b3373ffffffffffffffffffffffffffffffffffffffff167faa5cfc974bd759f818e3e18a4afc9d79daaa0722158497792100a1fddd13e19360405160405180910390a25050565b6001600381111561060557610604610b0e565b5b6000803373ffffffffffffffffffffffffffffffffffffffff1673ffffffffffffffffffffffffffffffffffffffff16815260200190815260200160002060020160009054906101000a900460ff16600381111561066657610665610b0e565b5b146106a6576040517f08c379a000000000000000000000000000000000000000000000000000000000815260040161069d90610eb8565b60405180910390fd5b60026000803373ffffffffffffffffffffffffffffffffffffffff1673ffffffffffffffffffffffffffffffffffffffff16815260200190815260200160002060020160006101000a81548160ff0219169083600381111561070b5761070a610b0e565b5b021790555062093a804261071f9190610f07565b6000803373ffffffffffffffffffffffffffffffffffffffff1673ffffffffffffffffffffffffffffffffffffffff168152602001908152602001600020600401819055503373ffffffffffffffffffffffffffffffffffffffff167f37ac9cdee90b132826b9d7c9712a4b99787abceac6bfe31146e363cde239ec146000803373ffffffffffffffffffffffffffffffffffffffff1673ffffffffffffffffffffffffffffffffffffffff168152602001908152602001600020600401546040516107eb9190610bf1565b60405180910390a2565b62093a8081565b60038081111561080f5761080e610b0e565b5b6000803373ffffffffffffffffffffffffffffffffffffffff1673ffffffffffffffffffffffffffffffffffffffff16815260200190815260200160002060020160009054906101000a900460ff1660038111156108705761086f610b0e565b5b14806108bd575060008060003373ffffffffffffffffffffffffffffffffffffffff1673ffffffffffffffffffffffffffffffffffffffff16815260200190815260200160002060000154145b6108fc576040517f08c379a00000000000000000000000000000000000000000000000000000000081526004016108f390610f87565b60405180910390fd5b6000341161093f576040517f08c379a000000000000000000000000000000000000000000000000000000000815260040161093690610ff3565b60405180910390fd5b6040518060a00160405280348152602001600081526020016000600381111561096b5761096a610b0e565b5b815260200182815260200160008152506000803373ffffffffffffffffffffffffffffffffffffffff1673ffffffffffffffffffffffffffffffffffffffff168152602001908152602001600020600082015181600001556020820151816001015560408201518160020160006101000a81548160ff021916908360038111156109f8576109f7610b0e565b5b021790555060608201518160030155608082015181600401559050503373ffffffffffffffffffffffffffffffffffffffff167f6f3bf3fa84e4763a43b3d23f9d79be242d6d5c834941ff4c1111b67469e1150c34604051610a5a9190610bf1565b60405180910390a250565b600080fd5b600073ffffffffffffffffffffffffffffffffffffffff82169050919050565b6000610a9582610a6a565b9050919050565b610aa581610a8a565b8114610ab057600080fd5b50565b600081359050610ac281610a9c565b92915050565b600060208284031215610ade57610add610a65565b5b6000610aec84828501610ab3565b91505092915050565b6000819050919050565b610b0881610af5565b82525050565b7f4e487b7100000000000000000000000000000000000000000000000000000000600052602160045260246000fd5b60048110610b4e57610b4d610b0e565b5b50565b6000819050610b5f82610b3d565b919050565b6000610b6f82610b51565b9050919050565b610b7f81610b64565b82525050565b6000819050919050565b610b9881610b85565b82525050565b600060a082019050610bb36000830188610aff565b610bc06020830187610aff565b610bcd6040830186610b76565b610bda6060830185610b8f565b610be76080830184610aff565b9695505050505050565b6000602082019050610c066000830184610aff565b92915050565b610c1581610b85565b8114610c2057600080fd5b50565b600081359050610c3281610c0c565b92915050565b600060208284031215610c4e57610c4d610a65565b5b6000610c5c84828501610c23565b91505092915050565b600082825260208201905092915050565b7f4e6f742070656e64696e67000000000000000000000000000000000000000000600082015250565b6000610cac600b83610c65565b9150610cb782610c76565b602082019050919050565b60006020820190508181036000830152610cdb81610c9f565b9050919050565b7f4e6f7420756e626f6e64696e6700000000000000000000000000000000000000600082015250565b6000610d18600d83610c65565b9150610d2382610ce2565b602082019050919050565b60006020820190508181036000830152610d4781610d0b565b9050919050565b7f5374696c6c206c6f636b65640000000000000000000000000000000000000000600082015250565b6000610d84600c83610c65565b9150610d8f82610d4e565b602082019050919050565b60006020820190508181036000830152610db381610d77565b9050919050565b600081905092915050565b50565b6000610dd5600083610dba565b9150610de082610dc5565b600082019050919050565b6000610df682610dc8565b9150819050919050565b7f5472616e73666572206661696c65640000000000000000000000000000000000600082015250565b6000610e36600f83610c65565b9150610e4182610e00565b602082019050919050565b60006020820190508181036000830152610e6581610e29565b9050919050565b7f4e6f742061637469766500000000000000000000000000000000000000000000600082015250565b6000610ea2600a83610c65565b9150610ead82610e6c565b602082019050919050565b60006020820190508181036000830152610ed181610e95565b9050919050565b7f4e487b7100000000000000000000000000000000000000000000000000000000600052601160045260246000fd5b6000610f1282610af5565b9150610f1d83610af5565b9250828201905080821115610f3557610f34610ed8565b5b92915050565b7f416c726561647920726567697374657265640000000000000000000000000000600082015250565b6000610f71601283610c65565b9150610f7c82610f3b565b602082019050919050565b60006020820190508181036000830152610fa081610f64565b9050919050565b7f5374616b65207265717569726564000000000000000000000000000000000000600082015250565b6000610fdd600e83610c65565b9150610fe882610fa7565b602082019050919050565b6000602082019050818103600083015261100c81610fd0565b905091905056fea2646970667358221220215ac12bc69e137297490b3a0d8d0df19057791da78c506ff780d58261c4c58264736f6c63430008180033",
  "linkReferences": {},
  "deployedLinkReferences": {}
}